{
  "_format": "hh-sol-artifact-1",
  "contractName": "Lottery",
  "sourceName": "contracts/Lottery.sol",
  "abi": [
    {
      "inputs": [],
      "stateMutability": "nonpayable",
      "type": "constructor"
    },
    {
      "inputs": [],
      "name": "getBalance",
      "outputs": [
        {
          "internalType": "uint256",
          "name": "",
          "type": "uint256"
        }
      ],
      "stateMutability": "view",
      "type": "function"
    },
    {
      "inputs": [],
      "name": "getParticipants",
      "outputs": [
        {
          "internalType": "address payable[]",
          "name": "",
          "type": "address[]"
        }
      ],
      "stateMutability": "view",
      "type": "function"
    },
    {
      "inputs": [],
      "name": "getWinner",
      "outputs": [],
      "stateMutability": "nonpayable",
      "type": "function"
    },
    {
      "inputs": [],
      "name": "manager",
      "outputs": [
        {
          "internalType": "address",
          "name": "",
          "type": "address"
        }
      ],
      "stateMutability": "view",
      "type": "function"
    },
    {
      "stateMutability": "payable",
      "type": "receive"
    }
  ],
  "bytecode": "0x608060405234801561001057600080fd5b50336000806101000a81548173ffffffffffffffffffffffffffffffffffffffff021916908373ffffffffffffffffffffffffffffffffffffffff160217905550610899806100606000396000f3fe6080604052600436106100435760003560e01c806312065fe01461010e578063481c6a75146101395780635aa68ac0146101645780638e7ea5b21461018f57610109565b3661010957662386f26fc1000034101580156100655750662aa1efb94e000034105b6100a4576040517f08c379a000000000000000000000000000000000000000000000000000000000815260040161009b90610706565b60405180910390fd5b6001339080600181540180825580915050600190039060005260206000200160009091909190916101000a81548173ffffffffffffffffffffffffffffffffffffffff021916908373ffffffffffffffffffffffffffffffffffffffff160217905550005b600080fd5b34801561011a57600080fd5b506101236101a6565b6040516101309190610746565b60405180910390f35b34801561014557600080fd5b5061014e6101ae565b60405161015b91906106c9565b60405180910390f35b34801561017057600080fd5b506101796101d2565b60405161018691906106e4565b60405180910390f35b34801561019b57600080fd5b506101a4610260565b005b600047905090565b60008054906101000a900473ffffffffffffffffffffffffffffffffffffffff1681565b6060600180548060200260200160405190810160405280929190818152602001828054801561025657602002820191906000526020600020905b8160009054906101000a900473ffffffffffffffffffffffffffffffffffffffff1673ffffffffffffffffffffffffffffffffffffffff168152602001906001019080831161020c575b5050505050905090565b60008054906101000a900473ffffffffffffffffffffffffffffffffffffffff1673ffffffffffffffffffffffffffffffffffffffff163373ffffffffffffffffffffffffffffffffffffffff16146102ee576040517f08c379a00000000000000000000000000000000000000000000000000000000081526004016102e590610726565b60405180910390fd5b60006001805490506102fe61044b565b6103089190610803565b9050600060018281548110610346577f4e487b7100000000000000000000000000000000000000000000000000000000600052603260045260246000fd5b9060005260206000200160009054906101000a900473ffffffffffffffffffffffffffffffffffffffff1690508073ffffffffffffffffffffffffffffffffffffffff166108fc6103956101a6565b9081150290604051600060405180830381858888f193505050501580156103c0573d6000803e3d6000fd5b50600067ffffffffffffffff811115610402577f4e487b7100000000000000000000000000000000000000000000000000000000600052604160045260246000fd5b6040519080825280602002602001820160405280156104305781602001602082028036833780820191505090505b5060019080519060200190610446929190610485565b505050565b600044426001805490506040516020016104679392919061068c565b6040516020818303038152906040528051906020012060001c905090565b8280548282559060005260206000209081019282156104fe579160200282015b828111156104fd5782518260006101000a81548173ffffffffffffffffffffffffffffffffffffffff021916908373ffffffffffffffffffffffffffffffffffffffff160217905550916020019190600101906104a5565b5b50905061050b919061050f565b5090565b5b80821115610528576000816000905550600101610510565b5090565b60006105388383610544565b60208301905092915050565b61054d816107bd565b82525050565b61055c816107ab565b82525050565b600061056d82610771565b6105778185610789565b935061058283610761565b8060005b838110156105b357815161059a888261052c565b97506105a58361077c565b925050600181019050610586565b5085935050505092915050565b60006105cd601f8361079a565b91507f596f75206e65656420746f207472616e7361637420302e3031206574686572006000830152602082019050919050565b600061060d60318361079a565b91507f546869732066756e6374696f6e2063616e206f6e6c792062652061636365737360008301527f656420627920746865206d616e616765720000000000000000000000000000006020830152604082019050919050565b61066f816107ef565b82525050565b610686610681826107ef565b6107f9565b82525050565b60006106988286610675565b6020820191506106a88285610675565b6020820191506106b88284610675565b602082019150819050949350505050565b60006020820190506106de6000830184610553565b92915050565b600060208201905081810360008301526106fe8184610562565b905092915050565b6000602082019050818103600083015261071f816105c0565b9050919050565b6000602082019050818103600083015261073f81610600565b9050919050565b600060208201905061075b6000830184610666565b92915050565b6000819050602082019050919050565b600081519050919050565b6000602082019050919050565b600082825260208201905092915050565b600082825260208201905092915050565b60006107b6826107cf565b9050919050565b60006107c8826107cf565b9050919050565b600073ffffffffffffffffffffffffffffffffffffffff82169050919050565b6000819050919050565b6000819050919050565b600061080e826107ef565b9150610819836107ef565b92508261082957610828610834565b5b828206905092915050565b7f4e487b7100000000000000000000000000000000000000000000000000000000600052601260045260246000fdfea2646970667358221220ed6d6ab018c22ded72197c3a208fe6ccb308c01fb8577da2a348c340feb062d764736f6c63430008000033",
  "linkReferences": {},
  "deployedLinkReferences": {}
}